:100000000C9452030C947A030C947A030C947A03A4
:100010000C947A030C947A030C947A030C947A036C
:100020000C947A030C947A030C947A030C947A035C
:100030000C947A030C947A030C947A030C947A034C
:100040000C9407100C947A030C94B30D0C94E50DEA
:100050000C947A030C947A030C947A030C947A032C
:100060000C947A030C947A03084AD73B3BCE016E7A
:1000700084BCBFFDC12F3D6C74319ABD56833DDAFF
:100080003D00C77F11BED9E4BB4C3E916BAAAABE0E
:10009000000000803F05A84CCDB2D44EB93836A937
:1000A000020C50B9918688083CA6AAAA2ABE000074
:1000B00000803F0000000008000201000003040768
:1000C0000000000000000000010204081020408031
:1000D0000102040810200102040810200404040492
:1000E00004040404020202020202030303030303E2
:1000F00000000000250028002B0000000000240064
:1001000027002A0000000000003E5B4F5B3E3E6B74
:100110004F6B3E1C3E7C3E1C183C7E3C181C577DA1
:10012000571C1C5E7F5E1C00183C1800FFE7C3E7ED
:10013000FF0018241800FFE7DBE7FF30483A060EFF
:100140002629792926407F050507407F05253F5A46
:100150003CE73C5A7F3E1C1C08081C1C3E7F1422B6
:100160007F22145F5F005F5F06097F017F00668961
:10017000956A606060606094A2FFA29408047E04A7
:100180000810207E201008082A1C08081C2A0808CD
:100190001E101010100C1E0C1E0C30383E3830068D
:1001A0000E3E0E06000000000000005F0000000789
:1001B000000700147F147F14242A7F2A12231308B7
:1001C000646236495620500008070300001C224193
:1001D000000041221C002A1C7F1C2A08083E080837
:1001E00000807030000808080808000060600020E7
:1001F000100804023E5149453E00427F40007249CA
:100200004949462141494D331814127F102745456D
:1002100045393C4A49493141211109073649494983
:1002200036464949291E00001400000040340000F1
:10023000000814224114141414140041221408025A
:10024000015909063E415D594E7C1211127C7F49CD
:100250004949363E414141227F4141413E7F494922
:1002600049417F090909013E414151737F0808084E
:100270007F00417F41002040413F017F081422411F
:100280007F404040407F021C027F7F0408107F3E79
:100290004141413E7F090909063E4151215E7F09E6
:1002A000192946264949493203017F01033F40404D
:1002B000403F1F2040201F3F4038403F6314081438
:1002C0006303047804036159494D43007F41414170
:1002D0000204081020004141417F04020102044051
:1002E00040404040000307080020545478407F28D5
:1002F0004444383844444428384444287F385454CB
:10030000541800087E090218A4A49C787F080404ED
:100310007800447D40002040403D007F102844008C
:1003200000417F40007C047804787C08040478381D
:1003300044444438FC1824241818242418FC7C084D
:10034000040408485454542404043F44243C4040CA
:10035000207C1C2040201C3C4030403C442810287D
:10036000444C9090907C4464544C440008364100C6
:100370000000770000004136080002010204023C40
:100380002623263C1EA1A161123A4040207A38540F
:100390005455592155557941225454784221555488
:1003A000784020545579400C1E52721239555555DB
:1003B00059395454545939555454580000457C41C6
:1003C0000002457D420001457C407D1211127DF006
:1003D000282528F07C545545002054547C547C0A30
:1003E000097F4932494949323A4444443A324A48F9
:1003F00048303A4141217A3A42402078009DA0A0FD
:100400007D3D4242423D3D4040403D3C24FF24244E
:10041000487E4943662B2FFC2F2BFF0929F620C06D
:10042000887E090320545479410000447D413048BE
:10043000484A32384040227A007A0A0A727D0D1901
:10044000317D2629292F28262929292630484D4063
:1004500020380808080808080808382F10C8ACBA5F
:100460002F102834FA00007B000008142A142222DE
:10047000142A14085500550055AA55AA55AAFF5527
:10048000FF55FF000000FF00101010FF00141414AF
:10049000FF001010FF00FF1010F010F0141414FCF7
:1004A000001414F700FF0000FF00FF1414F404FC14
:1004B000141417101F10101F101F1414141F0010F5
:1004C0001010F0000000001F101010101F1010106E
:1004D00010F010000000FF1010101010101010107D
:1004E000FF10000000FF140000FF00FF00001F10BD
:1004F000170000FC04F414141710171414F404F477
:100500000000FF00F714141414141414F700F71467
:100510001414171410101F101F141414F4141010B6
:10052000F010F000001F101F0000001F140000005A
:10053000FC140000F010F01010FF10FF141414FF52
:10054000141010101F00000000F010FFFFFFFFFF4D
:10055000F0F0F0F0F0FFFFFF0000000000FFFF0FE1
:100560000F0F0F0F3844443844FC4A4A4A347E0285
:10057000020606027E027E02635549416338444406
:100580003C04407E201E2006027E020299A5E7A5BB
:10059000991C2A492A1C4C7201724C304A4D4D302C
:1005A0003048784830BC625A463D3E494949007E51
:1005B0000101017E2A2A2A2A2A44445F44444051E8
:1005C0004A444040444A51400000FF0103E080FF9C
:1005D000000008086B6B083612362436060F090F28
:1005E00006000018180000001010003040FF010144
:1005F000001F01011E00191D1712003C3C3C3C006D
:100600000000000004E010021C07123732292D29D7
:10061000252B3900010310E110031D07062E2C299C
:100620002D2E2E373F0000021013800A298064020D
:100630002A040000007F2B040000009F022A04000F
:1006400000007F2B040000007F022A040000007FCE
:100650002B040000009F022A04000200812B0400EA
:100660000100A00F0180961180FFB103012C2DB273
:1006700003012C2DB306012C2D012C2DB40107C034
:1006800003A20284C101C5C2020A00C3028A2AC4AD
:10069000028AEEC5010E20003601C83A0105AA06FD
:1006A000150E911C11241FBECFEFD8E0DEBFCDBFC9
:1006B00011E0A0E0B1E0E4EEFEE302C005900D928F
:1006C000AA39B107D9F723E0AAE9B1E001C01D9228
:1006D000AF38B207E1F713E0C2E5D3E004C02197D9
:1006E000FE010E94F71CCF34D107C9F70E94430EC8
:1006F0000C94701F0C940000E7E6F2E080E090E0BC
:10070000A0E7B1EC80839183A283B38382EB9DE960
:10071000AFE0BFE384839583A683B78380E090E056
:10072000A8E4B1EC80879187A287B38782E598EB34
:10073000AEE1BFE384879587A687B78780E090E026
:10074000A0E2B1EC808B918BA28BB38B80E695EE0F
:10075000A0E3BFE3848B958BA68BB78B80E090E002
:10076000A0EFB0EC808F918FA28FB38F85ED98E7CB
:10077000A9E4BFE3848F958FA68FB78F80E090E0C8
:10078000A0EAB0EC80A391A3A2A3B3A386E993E46B
:10079000ABE6BFE384A395A3A6A3B7A380E090E054
:1007A000A0E2B0EC80A791A7A2A7B3A780E695EE40
:1007B000A0E9BFE384A795A7A6A7B7A780E090E02C
:1007C000A0EABFEB80AB91ABA2ABB3AB8BE89CE6EE
:1007D000A7EABFE384AB95ABA6ABB7AB10AE11AE47
:1007E00012AE13AE8CEB94E7A3EDBFE384AF95AFED
:1007F000A6AFB7AF80E090E0A0EABFE38093A70286
:100800009093A802A093A902B093AA0282E690E175
:10081000A0E0B0E48093AB029093AC02A093AD0251
:10082000B093AE0280E090E0A0E2B0E48093AF022B
:100830009093B002A093B102B093B2028DE697EE0E
:10084000ABE0B0E48093B3029093B402A093B502FE
:10085000B093B60280E090E0A0EAB0E48093B702E3
:100860009093B802A093B902B093BA0283ED9DE4CD
:10087000AAE1B0E48093BB029093BC02A093BD02B6
:10088000B093BE0280E090E0A0EFB0E48093BF029E
:100890009093C002A093C102B093C2028AE594E68D
:1008A000A3E2B0E48093C3029093C402A093C50274
:1008B000B093C60280E090E0A0E2B1E48093C7026A
:1008C0009093C802A093C902B093CA0281E79DE346
:1008D000AAE2B0E48093CB029093CC02A093CD0225
:1008E000B093CE0280E090E0A8E4B1E48093CF0220
:1008F0009093D002A093D102B093D20289E29CE5FA
:10090000AFE2B0E48093D3029093D402A093D502D7
:10091000B093D60280E090E0A0E7B1E48093D702E4
:100920009093D802A093D902B093DA0281E398E0C1
:10093000A4E3B0E48093DB029093DC02A093DD0299
:10094000B093DE020895EFEEF1E080E090E0A0E7E2
:10095000B1EC80839183A283B38389EE96E2A1EF09
:10096000BEE384839583A683B78380E090E0A8E408
:10097000B1EC80879187A287B3878EE59AEBA9E0D7
:10098000BFE384879587A687B78780E090E0A0E2E1
:10099000B1EC808B918BA28BB38B8BED99EFAEE199
:1009A000BFE3848B958BA68BB78B80E090E0A0EFA4
:1009B000B0EC808F918FA28FB38F86EF98E2ACE37B
:1009C000BFE3848F958FA68FB78F80E090E0A0EA79
:1009D000B0EC80A391A3A2A3B3A383E998E1A4E61A
:1009E000BFE384A395A3A6A3B7A380E090E0A0E211
:1009F000B0EC80A791A7A2A7B3A78EE09DE2A2E9E1
:100A0000BFE384A795A7A6A7B7A780E090E0A0EAD8
:100A1000BFEB80AB91ABA2ABB3AB81E99DEEACEA8F
:100A2000BFE384AB95ABA6ABB7AB10AE11AE12AEC5
:100A300013AE85EC90E2A0EEBFE384AF95AFA6AF16
:100A4000B7AF80E090E0A0EABFE380932F029093DD
:100A50003002A0933102B093320289EE96E2A9E00F
:100A6000B0E48093330290933402A0933502B093A4
:100A7000360280E090E0A0E2B0E4809337029093E9
:100A80003802A0933902B0933A0284EB98ECA6E1C5
:100A9000B0E480933B0290933C02A0933D02B0935C
:100AA0003E0280E090E0A0EAB0E480933F029093A1
:100AB0004002A0934102B093420289E29CE5A7E282
:100AC000B0E48093430290934402A0934502B09314
:100AD000460280E090E0A0EFB0E48093470290935C
:100AE0004802A0934902B0934A0281E79DE3A2E342
:100AF000B0E480934B0290934C02A0934D02B093CC
:100B00004E0280E090E0A0E2B1E480934F02909327
:100B10005002A0935102B093520283ED9DE4AAE3E8
:100B2000B0E48093530290935402A0935502B09383
:100B3000560280E090E0A8E4B1E4809357029093DD
:100B40005802A0935902B0935A0282E193E8A0E4BC
:100B5000B0E480935B0290935C02A0935D02B0933B
:100B60005E0280E090E0A0E7B1E480935F029093A2
:100B70006002A0936102B09362028DED94E2A6E45C
:100B8000B0E48093630290936402A0936502B093F3
:100B900066020C947C032F923F924F925F926F9269
:100BA0007F928F929F92AF92BF92CF92DF92EF92FD
:100BB000FF920F931F93CF93DF93CDB7DEB72897A4
:100BC0000FB6F894DEBF0FBECDBF98878F832A0182
:100BD0003B012DED34E246E450E4C301B2010E9432
:100BE000800B87FD0AC02F81388520593F4FF901BE
:100BF00064817581868197816EC0EF81F8858480DC
:100C00009580A680B780F0800181128123809F01AA
:100C100028583F4F3E832D83EF81F8853480C5806F
:100C2000D680E780F081F983EF81F885F181FA833E
:100C3000EF81F885F281FB83EF81F885F381FC83F6
:100C4000232D3C2D4D2D5E2DC301B2010E94800B42
:100C500087FD13C02F813885285F3F4F38872F834A
:100C6000832C9C2CAD2CBE2CF9800A811B812C80FE
:100C70008D819E812817390779F69401A501C3015A
:100C8000B2010E941A092B013C019401A501632DB8
:100C90007C2D8D2D9E2D0E941A099B01AC01C30154
:100CA000B2010E94C0094B015C012F2D302F412F52
:100CB000522D69817A818B819C810E941A099B0146
:100CC000AC01C501B4010E948D0B2F2D302F412F97
:100CD000522D0E941B0928960FB6F894DEBF0FBE56
:100CE000CDBFDF91CF911F910F91FF90EF90DF90DB
:100CF000CF90BF90AF909F908F907F906F905F90BC
:100D00004F903F902F9008958F929F92AF92BF92F5
:100D1000CF92DF92EF92FF926B017C01CA01B90181
:100D20000E948D0B4B015C01A7019601C701B60122
:100D30000E948D0B9B01AC01C501B4010E941B09EF
:100D4000FF90EF90DF90CF90BF90AF909F908F90EB
:100D50000C94080C29E048E06AE08EEB91E00C94DA
:100D600037182F923F924F925F926F927F928F929D
:100D70009F92AF92BF92CF92DF92EF92FF920F932A
:100D80001F93CF93DF9300D000D000D0CDB7DEB754
:100D90001C017E836D8369017A0120E030E0A901A6
:100DA000C701B6010E94B609882309F461C0B801E1
:100DB000110F880B990B0E946A0A4B015C01C70155
:100DC000B6010E94BB0969837A838B839C83B1013E
:100DD000032C000C880B990B0E946A0A2B013C0122
:100DE00029813A814B815C81C501B4010E948D0B40
:100DF0009B01AC01C301B2010E941B090E94320A8F
:100E000069837A838B839C83C701B6010E94FA0BA6
:100E10002B013C012D813E81B901330F880B990BC9
:100E20000E946A0A6B017C01A3019201C501B40111
:100E30000E948D0B9B01AC01C701B6010E941B09EA
:100E40000E94320A29813A813093BD012093BC016E
:100E50007093BB016093BA018FE1E82E88EFF82E02
:100E60008B014D815E81B1018EEB91E00E94E81310
:100E700026960FB6F894DEBF0FBECDBFDF91CF919F
:100E80001F910F91FF90EF90DF90CF90BF90AF90A8
:100E90009F908F907F906F905F904F903F902F909A
:100EA0000895EF92FF920F931F9362E08EEB91E013
:100EB0000E94111A61E08DE00E94161161E082E04B
:100EC0000E94161160E08EE00E94161160E08FE033
:100ED0000E94161160E080E10E94161161E086E038
:100EE0000E94161161E086E00E94521161E087E0E5
:100EF0000E94521160E085E00E94521161E082E0A0
:100F00000E94521126E040E855E260E070E08FED6B
:100F100092E00E944A0D0E94A3048EEB91E00E9491
:100F2000EB178C018EEB91E00E94E717E12CF12C7E
:100F30009C0140E050E060E070E08EEB91E00E94A8
:100F40007A1B1F910F91FF90EF9008958F929F92BF
:100F5000AF92BF92CF92DF92EF92FF920F931F93C7
:100F6000CF93DF9300D000D000D0CDB7DEB761E0E3
:100F70008DE00E9452118AE999E9A9E1B0E48093D9
:100F8000AE019093AF01A093B001B093B10186E69A
:100F900096E6A6E2B0E48093AA019093AB01A093F9
:100FA000AC01B093AD014CE054E360E57CE38FEE1F
:100FB00091E00E94CB056B017C016093A2017093CC
:100FC000A3018093A4019093A5014CE050E360E459
:100FD0007CE387E692E00E94CB054B015C016093C5
:100FE000A6017093A7018093A8019093A9019B018A
:100FF000AC01C701B6010E94840660939E01709304
:101000009F018093A0019093A101A5019401C701C4
:10101000B6010E94C0090E94870960939A017093EB
:101020009B0180939C0190939D0120E030E040E083
:1010300050E4C501B4010E94800B87FF0AC020E084
:1010400030E040E050E4C701B6010E94800B87FD0C
:10105000DEC062E08EEB91E00E94AB1A4AE050E005
:1010600060E470E08EEB91E00E94DB1760E070E0DE
:101070008EEB91E00E94E1174091B2015091B301D3
:101080006091B4017091B50122E030E08EEB91E007
:101090000E94F30F4AE050E060E470E08EEB91E0D4
:1010A0000E94DB176FEF7FEF8EEB91E00E94E1175C
:1010B00026E636E646E650E460919E0170919F0177
:1010C0008091A0019091A1010E948D0B0E94320A93
:1010D0006B017C01072E000C880B990B0E946A0A99
:1010E0006093B2017093B3018093B4019093B50102
:1010F0004AE0B601CE0101960E940612BE016F5F62
:101100007F4F8EEB91E00E94910ECE0101960E94DE
:1011100081110091BA011091BB012091BC01309165
:10112000BD01409106015091070160910801709145
:101130000901E12CF12C8EEB91E00E94E813209143
:101140009A0130919B0140919C0150919D016091C9
:1011500006017091070102E310E08091080190916F
:1011600009010E94B10620EE3EE245E652E460919C
:101170009A0170919B0180919C0190919D010E9428
:101180008D0BAB01BC0122E030E08FED92E00E94BC
:10119000F50F6AE071E08FED92E00E94AA0E409197
:1011A000A6015091A7016091A8017091A90122E0C8
:1011B00030E08FED92E00E94F50F4091A201509136
:1011C000A3016091A4017091A50122E030E08FEDB0
:1011D00092E00E94F50F6AE071E08FED92E00E94CC
:1011E000AA0E80919A0190919B01A0919C01B091CF
:1011F0009D018093B6019093B701A093B801B0937D
:10120000B90164E670E080E090E00E9476102696D6
:101210000FB6F894DEBF0FBECDBFDF91CF911F9107
:101220000F91FF90EF90DF90CF90BF90AF909F9085
:101230008F9008955058BB27AA270E9432090C941A
:10124000320B0E94F90A38F00E94000B20F039F4AA
:101250009F3F19F426F40C94CF0A0EF4E095E7FBB7
:101260000C94C90AE92F0E94570B58F3BA1762076A
:1012700073078407950720F079F4A6F50C94790B91
:101280000EF4E0950B2EBA2FA02D0B01B9019001A1
:101290000C01CA01A0011124FF27591B99F0593FE5
:1012A00050F4503E68F11A16F040A22F232F342F2D
:1012B0004427585FF3CF469537952795A795F0407B
:1012C0005395C9F77EF41F16BA0B620B730B840B90
:1012D000BAF09150A1F0FF0FBB1F661F771F881F48
:1012E000C2F70EC0BA0F621F731F841F48F48795A0
:1012F00077956795B795F7959E3F08F0B0CF939592
:10130000880F08F09927EE0F979587950895DF933A
:10131000DD27B92FBF7740E85FE3161617064807A9
:101320005B0718F4D92F0E94850B9F938F937F93AF
:101330006F930E94480CE8E6F0E00E94D20A0E94F7
:10134000320B2F913F914F915F910E94A00BDD23B3
:1013500051F09058A2EA2AED3FE049EC5FE3D078E3
:101360005D270E943209DF910C94320B0E94A50A7E
:1013700008F481E008950E94090BE3950C94430B57
:101380000E94D4090C94320B0E94000B58F00E946A
:10139000F90A40F029F45F3F29F00C94C90A511171
:1013A0000C947A0B0C94CF0A0E94570B68F3992384
:1013B000B1F3552391F3951B550BBB27AA27621751
:1013C0007307840738F09F5F5F4F220F331F441F5E
:1013D000AA1FA9F335D00E2E3AF0E0E832D0915092
:1013E0005040E695001CCAF72BD0FE2F29D0660F7F
:1013F000771F881FBB1F261737074807AB07B0E8C2
:1014000009F0BB0B802DBF01FF2793585F4F3AF0C7
:101410009E3F510578F00C94C90A0C947A0B5F3FFB
:10142000E4F3983ED4F3869577956795B795F7954D
:101430009F5FC9F7880F911D9695879597F9089535
:10144000E1E0660F771F881FBB1F621773078407D1
:10145000BA0720F0621B730B840BBA0BEE1F88F7E0
:10146000E09508950E94390A6894B1110C947A0BA2
:1014700008950E945F0B88F09F5798F0B92F992725
:10148000B751B0F0E1F0660F771F881F991F1AF06F
:10149000BA95C9F714C0B13091F00E94790BB1E050
:1014A00008950C94790B672F782F8827B85F39F04F
:1014B000B93FCCF3869577956795B395D9F73EF408
:1014C00090958095709561957F4F8F4F9F4F0895B0
:1014D000E89409C097FB3EF49095809570956195CE
:1014E0007F4F8F4F9F4F9923A9F0F92F96E9BB2784
:1014F0009395F695879577956795B795F111F8CF00
:10150000FAF4BB0F11F460FF1BC06F5F7F4F8F4F6A
:101510009F4F16C0882311F096E911C0772321F060
:101520009EE8872F762F05C0662371F096E8862FF8
:1015300070E060E02AF09A95660F771F881FDAF74F
:10154000880F9695879597F90895990F0008550F7C
:10155000AA0BE0E8FEEF16161706E807F907C0F039
:1015600012161306E407F50798F0621B730B840B41
:10157000950B39F40A2661F0232B242B252B21F41B
:1015800008950A2609F4A140A6958FEF811D811DBB
:10159000089597F99F6780E870E060E008959FEFF5
:1015A00080EC0895DF93CF931F930F93FF92EF92F8
:1015B000DF927B018C01689406C0DA2EEF010E9455
:1015C000A00BFE01E894A591259135914591559187
:1015D000A6F3EF010E943209FE019701A801DA94F7
:1015E00069F7DF90EF90FF900F911F91CF91DF91FE
:1015F000089500240A941616170618060906089579
:1016000000240A94121613061406050608950C9475
:10161000CF0A0E945F0BD8F3E894E0E0BB279F5706
:10162000F0F02AED3FE049EC06C0EE0FBB0F661F5D
:10163000771F881F28F0B23A62077307840728F0E3
:10164000B25A620B730B840BE3959A9572F780384C
:1016500030F49A95BB0F661F771F881FD2F790480A
:101660000C944E0C092E0394000C11F4882352F0B4
:10167000BB0F40F4BF2B11F460FF04C06F5F7F4FBE
:101680008F4F9F4F0895EF93E0FF07C0A2EA2AED26
:101690003FE049EC5FEB0E9432090E94320B0F9051
:1016A000039401FC9058E5E9F0E00C94610C57FDBF
:1016B0009058440F551F59F05F3F71F04795880FC0
:1016C00097FB991F61F09F3F79F087950895121657
:1016D00013061406551FF2CF4695F1DF08C0161603
:1016E00017061806991FF1CF8695710561050894B4
:1016F0000895E894BB2766277727CB0197F90895CB
:101700000E94A50A08F48FEF08959B01AC0160E0E8
:1017100070E080E89FE30C94C0090E94A00B0C9439
:10172000320B0E94F90A38F00E94000B20F095233A
:1017300011F00C94C90A0C94CF0A11240C947A0B62
:101740000E94570B70F3959FC1F3950F50E0551F02
:10175000629FF001729FBB27F00DB11D639FAA2706
:10176000F00DB11DAA1F649F6627B00DA11D661F55
:10177000829F2227B00DA11D621F739FB00DA11D76
:10178000621F839FA00D611D221F749F3327A00D30
:10179000611D231F849F600D211D822F762F6A2FCC
:1017A00011249F5750409AF0F1F088234AF0EE0F31
:1017B000FF1FBB1F661F771F881F91505040A9F75E
:1017C0009E3F510580F00C94C90A0C947A0B5F3F40
:1017D000E4F3983ED4F3869577956795B795F7959A
:1017E000E7959F5FC1F7FE2B880F911D9695879512
:1017F00097F908959F930E94090B0F9007FCEE5FE5
:101800000C94430B19F416F40C94CF0A0C944C0C62
:101810000E945F0BB8F39923C9F3B6F39F57550B9A
:1018200087FF0E945A0C0024A0E640EA90018058ED
:101830005695979528F4805C660F771F881F20F0D7
:1018400026173707480730F4621B730B840B2029D7
:1018500031294A2BA69517940794202531254A272C
:1018600058F7660F771F881F20F02617370748079D
:1018700030F4620B730B840B200D311D411DA095BC
:1018800081F7B901842F9158880F9695879508950F
:101890009B01AC010C948D0B9F3F31F0915020F4D3
:1018A000879577956795B795880F911D969587953C
:1018B00097F9089591505040660F771F881FD2F70F
:1018C00008959F938F937F936F93FF93EF939B0163
:1018D000AC010E948D0BEF91FF910E94D20A2F91D3
:1018E0003F914F915F910C948D0BFC01918D228D56
:1018F000892F90E0805C9F4F821B91098F739927FD
:101900000895FC01918D828D981731F0828DE80F3A
:10191000F11D858D90E008958FEF9FEF0895FC01F4
:10192000918D828D981761F0828DDF01A80FB11D16
:101930005D968C91928D9F5F9F73928F90E008953A
:101940008FEF9FEF0895FC01538D448D252F30E0DC
:10195000842F90E0821B930B541710F0CF960895BC
:10196000019708958BE09EE0892B49F080E090E09C
:10197000892B29F00E940B0E81110C940000089510
:10198000FC01848DDF01A80FB11DA35ABF4F2C911C
:10199000848D90E001968F739927848FA689B789EB
:1019A0002C93A089B1898C9180648C93938D848DC4
:1019B000981306C00288F389E02D80818F7D808393
:1019C0000895EF92FF920F931F93CF93DF93EC0153
:1019D00081E0888F9B8D8C8D981305C0E889F989EB
:1019E000808185FD24C0F62E0B8D10E00F5F1F4F08
:1019F0000F731127E02E8C8DE8120CC00FB607FC78
:101A0000FACFE889F989808185FFF5CFCE010E9460
:101A1000C00CF1CF8B8DFE01E80FF11DE35AFF4F93
:101A2000F0820B8FEA89FB898081806207C0EE8992
:101A3000FF896083E889F98980818064808381E0FF
:101A400090E0DF91CF911F910F91FF90EF9008955B
:101A5000CF93DF93EC01888D8823C9F0EA89FB8955
:101A6000808185FD05C0A889B9898C9186FD0FC04C
:101A70000FB607FCF5CF808185FFF2CFA889B98921
:101A80008C9185FFEDCFCE010E94C00CE7CFDF9196
:101A9000CF910895CF92DF92EF92FF921F93CF9351
:101AA000DF93EC016A017B01122FE889F98982E05A
:101AB00080834115514E61057105B1F060E079E018
:101AC0008DE390E0A70196010E94D51CDA01C901BF
:101AD0000197A109B109B695A795979587959C019E
:101AE000211580E13807A8F0E889F989108260E8BB
:101AF00074E88EE190E0A70196010E94D51CDA01FE
:101B0000C9010197A109B109B695A7959795879540
:101B10009C01EC85FD853083EE85FF852083188E42
:101B2000EC89FD891083EA89FB898081806180834B
:101B3000EA89FB89808188608083EA89FB898081CA
:101B400080688083EA89FB8980818F7D8083DF9133
:101B5000CF911F91FF90EF90DF90CF90089580E09C
:101B600090E0089508951F920F920FB60F921124DE
:101B70002F938F939F93EF93FF93E091EF02F09158
:101B8000F0028081E091F502F091F60282FD12C030
:101B900090818091F8028F5F8F732091F9028217F4
:101BA00051F0E091F802F0E0E152FD4F958F809303
:101BB000F80201C08081FF91EF919F918F912F9149
:101BC0000F900FBE0F901F9018951F920F920FB697
:101BD0000F9211242F933F934F935F936F937F93B3
:101BE0008F939F93AF93BF93EF93FF938FED92E00B
:101BF0000E94C00CFF91EF91BF91AF919F918F9187
:101C00007F916F915F914F913F912F910F900FBEF8
:101C10000F901F9018958FED92E00E94750C21E0B7
:101C2000892B09F420E0822F0895EFEDF2E0138272
:101C3000128288EE93E0A0E0B0E084839583A683CF
:101C4000B78384E291E09183808385EC90E095876F
:101C5000848784EC90E09787868780EC90E0918B76
:101C6000808B81EC90E0938B828B82EC90E0958B63
:101C7000848B86EC90E0978B868B118E128E138E60
:101C8000148E089508950E94B2100E94420E0E9480
:101C90005107C2EBDCE00E94A6072097E1F30E9407
:101CA000B20CF9CFCF92DF92EF92FF920F931F9376
:101CB000CF93DF936C017A018B01C0E0D0E0CE15A9
:101CC000DF0581F0D8016D918D01D601ED91FC9178
:101CD0000190F081E02DC6010995892B11F0219624
:101CE000EECF7E01C701DF91CF911F910F91FF9041
:101CF000EF90DF90CF9008956115710579F0FB01A9
:101D000001900020E9F73197AF01461B570BDC012A
:101D1000ED91FC910280F381E02D099480E090E048
:101D20000895DB0114964D915C9115976D917C910E
:101D3000DC01ED91FC910280F381E02D0994DC013E
:101D4000ED91FC910190F081E02D099462E371E046
:101D50000C947C0E0F931F93CF93DF93EC010E94A2
:101D60007C0E8C01CE010E94A60E800F911FDF9188
:101D7000CF911F910F9108958F929F92AF92BF9232
:101D8000EF92FF920F931F93CF93DF93CDB7DEB700
:101D9000A1970FB6F894DEBF0FBECDBF7C01FA014C
:101DA000CB0119A2223008F42AE08E010F5D1F4FEB
:101DB000822E912CA12CB12CBF01A50194010E946F
:101DC000D51CF901CA01015011096A3010F4605D97
:101DD00001C0695CD8016C93232B242B252B61F760
:101DE000B801C7010E947C0EA1960FB6F894DEBF21
:101DF0000FBECDBFDF91CF911F910F91FF90EF905C
:101E0000BF90AF909F908F9008952115310541F4B8
:101E1000DC01ED91FC910190F081E02D642F09949B
:101E20000C94BC0E9A01AB0160E070E00C94050FBD
:101E30007F928F929F92AF92BF92CF92DF92EF925A
:101E4000FF920F931F93CF93DF938C016A017B0165
:101E5000722E9A01AB01C701B6010E94D01C8823E3
:101E600019F065E371E027C046015701E894B7F81F
:101E70002FEF3FEF4FE75FE7C501B4010E94D01C91
:101E800081110DC02FEF3FEF4FE75FE7C501B401B0
:101E90000E94B60918161CF469E371E00CC02FEF1C
:101EA0003FEF4FE75FE4C701B6010E94800B1816B1
:101EB00094F46DE371E0C801DF91CF911F910F9110
:101EC000FF90EF90DF90CF90BF90AF909F908F905A
:101ED0007F900C947C0E2FEF3FEF4FE75FECC70134
:101EE000B6010E94B60987FDE4CF20E030E0A901E9
:101EF000C701B6010E94B60987FF0AC06DE2C8019A
:101F00000E949F0EEC01F7FAF094F7F8F09402C0EB
:101F1000C0E0D0E0B12C60E070E080E09FE37B1493
:101F200041F020E030E040E251E40E94C009B39467
:101F3000F6CFA70196010E941B096B017C010E944C
:101F4000390A4B015C012AE0AB01BC01C8010E94C7
:101F5000BC0EC80FD91F7720B9F1C501B4010E948A
:101F6000680A9B01AC01C701B6010E941A096B0106
:101F70007C016EE2C8010E949F0EC80FD91F20E0AD
:101F800030E040E251E4C701B6010E948D0B4B01E5
:101F90005C010E94390A6B017C014AE050E0C801F3
:101FA0000E94120FC80FD91FB60180E090E00E9476
:101FB000680A9B01AC01C501B4010E941A096B01BA
:101FC0007C017A947110DBCFCE01DF91CF911F910C
:101FD0000F91FF90EF90DF90CF90BF90AF909F90C8
:101FE0008F907F9008950C94180F0F931F93CF93A9
:101FF000DF93EC010E94180F8C01CE010E94A60E07
:10200000800F911FDF91CF911F910F9108951F9223
:102010000F920FB60F9211242F933F938F939F939C
:10202000AF93BF9380917D0390917E03A0917F0336
:10203000B091800330917C0323E0230F2D3720F4EF
:102040000196A11DB11D05C026E8230F0296A11D12
:10205000B11D20937C0380937D0390937E03A09316
:102060007F03B09380038091810390918203A091BC
:102070008303B09184030196A11DB11D8093810358
:1020800090938203A0938303B0938403BF91AF9195
:102090009F918F913F912F910F900FBE0F901F90A6
:1020A00018953FB7F8948091810390918203A09195
:1020B0008303B091840326B5A89B05C02F3F19F078
:1020C0000196A11DB11D3FBFBA2FA92F982F8827B8
:1020D000820F911DA11DB11DBC01CD0142E0660F13
:1020E000771F881F991F4A95D1F708958F929F9265
:1020F000AF92BF92CF92DF92EF92FF926B017C0181
:102100000E9451104B015C01C114D104E104F1049F
:1021100001F10E94CF1C0E945110DC01CB018819F3
:102120009909AA09BB09883E9340A105B10560F34E
:1021300021E0C21AD108E108F10888EE880E83E098
:10214000981EA11CB11CC114D104E104F10419F7BB
:10215000DBCFFF90EF90DF90CF90BF90AF909F903C
:102160008F900895789484B5826084BD84B5816031
:1021700084BD85B5826085BD85B5816085BDEEE68F
:10218000F0E0808181608083E1E8F0E0108280816E
:1021900082608083808181608083E0E8F0E08081DC
:1021A00081608083E1EBF0E0808184608083E0EBFC
:1021B000F0E0808181608083EAE7F0E080818460E4
:1021C0008083808182608083808181608083808140
:1021D000806880831092C1000895833081F028F4D4
:1021E000813099F08230A1F008958730A9F08830CD
:1021F000B9F08430D1F4809180008F7D03C080914C
:1022000080008F7780938000089584B58F7702C017
:1022100084B58F7D84BD08958091B0008F7703C011
:102220008091B0008F7D8093B0000895CF93DF93AD
:1022300090E0FC01E853FF4F2491FC01E452FF4F72
:102240008491882361F190E0880F991FFC01E6508A
:10225000FF4FC591D491FC01E051FF4FA591B4917E
:10226000611109C09FB7F8948881209582238883E3
:10227000EC912E230BC0623061F49FB7F8948881F3
:10228000322F309583238883EC912E2B2C939FBF84
:1022900006C08FB7F894E8812E2B28838FBFDF917B
:1022A000CF9108951F93CF93DF93282F30E0F9014A
:1022B000EC54FF4F8491F901E853FF4FD491F90199
:1022C000E452FF4FC491CC23C1F0162F81110E941C
:1022D000ED10EC2FF0E0EE0FFF1FE051FF4FA59146
:1022E000B4919FB7F894111104C08C91D095D82364
:1022F00002C0EC91DE2BDC939FBFDF91CF911F9149
:102300000895FC01808191810C94951DCF93DF93FA
:10231000EC0188819981009711F00E94951D198226
:1023200018821D821C821B821A82DF91CF91089530
:102330000F931F93CF93DF93EC018B016F5F7F4F60
:10234000888199810E941E1E009731F099838883AD
:102350001B830A8381E001C080E0DF91CF911F9150
:102360000F910895CF93DF93EC0188819981892B98
:1023700029F08A819B818617970760F4CE010E941D
:102380009811882341F08C819D81892B19F4E88173
:10239000F981108281E0DF91CF910895EF92FF9251
:1023A0000F931F93CF93DF93EC017B018A01BA0156
:1023B0000E94B211811104C0CE010E94861107C093
:1023C0001D830C83B701888199810E94F21ECE0182
:1023D000DF91CF911F910F91FF90EF900895CF93D0
:1023E000DF93EC016115710559F0FB0101900020AC
:1023F000E9F73197AF01461B570B0E94CE1102C07F
:102400000E948611CE01DF91CF9108950F931F9303
:10241000CF93DF93CDB7DEB762970FB6F894DEBFE8
:102420000FBECDBF8C01CB01F80111821082138247
:1024300012821582148250E0BE016F5F7F4F0E94AE
:10244000F91EBE016F5F7F4FC8010E94EF116296B7
:102450000FB6F894DEBF0FBECDBFDF91CF911F91B5
:102460000F9108952F923F924F925F926F927F92B9
:102470008F929F92AF92BF92CF92DF92EF92FF9294
:102480000F931F93CF93DF9300D000D000D0CDB730
:10249000DEB72C017E836D836A015901C801FC827D
:1024A000EB824801841A950A97FE03C091948194A7
:1024B000910835012D813E81621A730A77FE03C0AF
:1024C000719461947108681479045CF43A2D2B2D91
:1024D0005C01832F922F3D812E81DE82CD82C32E1F
:1024E000D22EAD81BE81AA16BB065CF43C2D2D2DEB
:1024F0006C01832F922F3D812E81BE82AD82A32E4F
:10250000B22E85012D813E81021B130B1C012C185C
:102510003D0837FE03C0319421943108780117FF3C
:1025200003C03FEFE31AF30AF594E794C816D906FF
:102530002CF08FEF9FEF9A83898304C0A1E0B0E075
:10254000BA83A9832D813E81A216B30624F1D2015C
:10255000ED91FC910484F585E02D2B813C8168147C
:10256000790424F44D815E81B60103C0A6016D811A
:102570007E81C2010995E218F308F7FE06C02981A1
:102580003A81C20ED31EE00EF11E8D819E8101960E
:102590009E838D83D7CF26960FB6F894DEBF0FBEED
:1025A000CDBFDF91CF911F910F91FF90EF90DF9002
:1025B000CF90BF90AF909F908F907F906F905F90E3
:1025C0004F903F902F900895DC01ED91FC91008495
:1025D000F185E02D09940F931F93DC01ED91FC919F
:1025E000048CF58DE02D09951F910F9108950F939F
:1025F0001F93DC01ED91FC91068CF78DE02D099580
:102600001F910F910895EF92FF920F931F93DC019A
:10261000ED91FC9100A0F1A1E02D09951F910F9182
:10262000FF90EF90089508958F929F92AF92BF927E
:10263000CF92DF92EF92FF920F931F93CF93DF938E
:10264000EC015B014A0169017801E881F9810284AA
:10265000F385E02D0995C80CD91C8601015011099C
:10266000E881F9810488F589E02D9501A401B5017F
:10267000CE010995E881F9810688F789E02DCE0120
:10268000DF91CF911F910F91FF90EF90DF90CF904E
:10269000BF90AF909F908F9009948F929F92AF922E
:1026A000BF92CF92DF92EF92FF920F931F93CF933F
:1026B000DF93EC015B014A016901E881F981028441
:1026C000F385E02D099595012C0D3D1D2150310913
:1026D000E881F9810488F589E02D78018401A4015D
:1026E000B501CE010995E881F9810688F789E02DC9
:1026F000CE01DF91CF911F910F91FF90EF90DF906E
:10270000CF90BF90AF909F908F9009944F925F921F
:102710006F927F928F929F92AF92BF92CF92DF92F1
:10272000EF92FF920F931F93CF93DF936C012B01D6
:102730005A0139014801DC01ED91FC910284F385D5
:10274000E02D0995E201640C751CD601ED91FC9118
:10275000C615D7055CF40088F189E02D8701940146
:10276000A501BE01C60109952196EFCF0688F7891C
:10277000E02DC601DF91CF911F910F91FF90EF9057
:10278000DF90CF90BF90AF909F908F907F906F9091
:102790005F904F900994EF92FF920F931F93DC018B
:1027A0001A960D911C911B9718962D913C91199793
:1027B000ED91FC9100A0F1A1E02D7B0140E050E003
:1027C00060E070E009951F910F91FF90EF900895E0
:1027D0008F929F92AF92BF92CF92DF92EF92FF9231
:1027E0000F931F93CF93DF934C016B015A01E901C3
:1027F000DC01ED91FC916217730781F40417150752
:1028000024F48B2D5801042F182F0A191B09980145
:102810002F5F3F4F048CF58DE02D12C040175107FC
:1028200009F52617370724F48D2D6901C62FD82FF7
:102830009E012C193D092F5F3F4F068CF78DE02D2F
:102840008701A501B601C4010995DF91CF911F91C0
:102850000F91FF90EF90DF90CF90BF90AF909F903F
:102860008F9008950284F385E02D0995D401ED91B0
:10287000FC910488F589E02D9E01A501B601C401F3
:102880000995D401ED91FC910688F789E02DC401EA
:10289000DF91CF911F910F91FF90EF90DF90CF903C
:1028A000BF90AF909F908F9009946F927F928F927C
:1028B0009F92AF92BF92CF92DF92EF92FF920F93CF
:1028C0001F93CF93DF93EC014B015A01690138014B
:1028D000E881F9810284F385E02D0995E881F98189
:1028E0000288F389E02D87019601A501B401CE018C
:1028F0000995A501460D571D41505109E881F981FF
:102900000288F389E02D9601B401CE010995E88192
:10291000F9810088F189E02D9301A501B401CE0170
:102920000995C80CD91CB60161507109E881F9817B
:102930000088F189E02D9301A501CE010995E88178
:10294000F9810688F789E02DCE01DF91CF911F91A3
:102950000F91FF90EF90DF90CF90BF90AF909F903E
:102960008F907F906F9009940895FC016370658B40
:102970008481958126813781613039F0633029F077
:1029800091878087338722870895318720879387AF
:1029900082870895FC011382128285E491E091837D
:1029A00080837583648357834683718760875387E9
:1029B0004287158A158614861786168681E0848BD1
:1029C0002FEF3FEF338B228B318B208B868B178A37
:1029D000118E108E08952F923F924F925F926F92B8
:1029E0007F928F929F92AF92BF92CF92DF92EF929F
:1029F000FF920F931F93CF93DF93CDB7DEB76B9703
:102A00000FB6F894DEBF0FBECDBF9B8F8A8F5B01E0
:102A10001A01D22E1F830E833701C982DC0158961A
:102A20002D913C9159972115310509F0E6C0189672
:102A30008D919C911997681779070CF0CDC11A9662
:102A40008D919C911B97481759070CF0C5C18C2C90
:102A5000912CFB0126E0C29EE00DF11D1124FB87A5
:102A6000EA871E161F060CF0B7C1A40183E0440FCD
:102A7000551F8A95E1F75D874C87CA01820D931D2A
:102A8000181619060CF0A8C157968C91811104C034
:102A90005FEA5D1508F4D394AA8DBB8DED91FC918E
:102AA00011970284F385E02DCD010995B5E0DB9EF9
:102AB000C0011124F5013596FF87EE872501BB8201
:102AC000AA829C012A193B09398B288BA101485FF6
:102AD0005F4F5B8B4A8BE889F989E40DF51DEC5F4C
:102AE000FE4F549158873D822C826101888580FF7A
:102AF00013C0AA8DBB8DED91FC91B981B13031F439
:102B00000484F585E02D2E813F8116C00684F7856B
:102B1000E02DEE80FF801AC0EE81FF81E615F705FB
:102B2000F1F0AA8DBB8DED91FC91B981B13051F4DA
:102B30000484F585E02D9301A601B2018A8D9B8D59
:102B400009950DC00684F785E02D73018401940179
:102B50004C815D816A817B818A8D9B8D0995E88599
:102B6000E695E8872C813D81280D391D3D832C8316
:102B70003FEFC31AD30A4A895B89C416D50609F008
:102B8000B5CF8A819B81880D991D9B838A839FEF96
:102B9000491A590AAE85BF854A165B0609F09BCFD4
:102BA000EE81FF81E615F70509F4F4C0EA8DFB8D8F
:102BB000A081B181F981F13079F4B5016B5F7F4F6C
:102BC0005096ED91FC915197830128E030E0A101EE
:102BD0008A8D9B8D0995DEC06A857B856819790988
:102BE0001E96ED91FC911F9773010C851D85940134
:102BF000A1018A8D9B8D0995CDC0F9013496E49190
:102C0000DE1AF901329685919491B7E0DB9E800D32
:102C1000911D1124F901259134913B8B2A8BFC01E4
:102C2000259134912901FC013296C490319634915A
:102C30003C87329614913196D4904981423058F0B5
:102C4000612E012E000C77088D2D0D2C000C990B98
:102C50009987888704C019861886612C712CAA8DE3
:102C6000BB8DED91FC9111970284F385E02DCD0190
:102C70000995B9818B2E912C689CC001699C900D9F
:102C8000789C900D1124FC01EA0DFB1DF98BE88B5B
:102C90001A82712C612CE12F110FFF0B95012E0F61
:102CA0003F1F3B872A87AC0CB11CA5014E0F5F1F4D
:102CB0005F8B4E8BC1018D0D911DD7FC9A95998F1D
:102CC000888F9C85691608F065C0862D90E0488540
:102CD0005985480F591F489D9001499D300D589DB9
:102CE000300D1124D101A20FB31FBF87AE87AA8474
:102CF000BB84E889F989FD83EC83DA80FA85DF1AE1
:102D0000288D398D280F391F3D8B2C8B8D2D8A0DE9
:102D10004E895F89A416B506C1F1877041F4C201DE
:102D20000196EA89FB89E40DF51D74902C0177FE6C
:102D300021C0AA8DBB8DED91FC91B981B13061F4B8
:102D40000484F585E02D2E813F814C895D89B50194
:102D50008A8D9B8D09950EC00684F785E02DEE8047
:102D6000FF80840194014E855F856C817D818A8D11
:102D70009B8D0995770CEC81FD81E80DF91DFD8394
:102D8000EC83FFEFAF1ABF0AC1CF2A812C0D2A8333
:102D9000639497CFAA8DBB8DED91FC911197068816
:102DA000F789E02DCD016B960FB6F894DEBF0FBE0C
:102DB000CDBFDF91CF911F910F91FF90EF90DF90EA
:102DC000CF90BF90AF909F908F907F906F905F90CB
:102DD0004F903F902F9009946B960FB6F894DEBFFA
:102DE0000FBECDBFDF91CF911F910F91FF90EF905C
:102DF000DF90CF90BF90AF909F908F907F906F901B
:102E00005F904F903F902F900895AF92BF92CF92D6
:102E1000EF92FF920F931F93CF93DF93EC01262F36
:102E2000888D998D009709F040C06A3059F41D864D
:102E30001C862C898E859F8538E0239F800D911DEF
:102E4000112441C06D3009F4AAC08E898823C1F0D5
:102E50003C898C859D8546E0349F800D911D112411
:102E600048855985481759075CF41D861C868E8550
:102E70009F8548E0349F800D911D11249F878E8788
:102E8000EA88FB88088919894E855F856C857D8570
:102E9000CC88CE010E94EB142C898C859D8536E070
:102EA000239F800D911D112442C06A3079F41D8644
:102EB0001C862C89FC013696E4918E859F852E9F79
:102EC000800D911D11249F878E8769C06D3009F494
:102ED00066C0FC0134963491631708F460C03196E3
:102EE000E491E61708F45BC0FC0132966591749199
:102EF000422F50E0431B510937E0349F5001359F6A
:102F0000B00C1124A60EB71EF501329634913196FD
:102F1000E491332311F0E1110DC0F5013496E491F1
:102F20002C898C859D85E29F800D911D11249D87A4
:102F30008C8735C0F501359644915E89552311F192
:102F40006C89E32FF0E0E40FF11D47FDFA956E9FC9
:102F5000D0016F9FB00D11244C855D854A0F5B1F1A
:102F6000E885F985E417F5076CF41D861C86FC01DD
:102F70003696E4918E859F856E9F800D911D11245C
:102F80009F878E87EA88FB88088919894E855F8527
:102F90006C857D85CC88CE010E94EB14BECF81E08C
:102FA00090E0DF91CF911F910F91FF90EF90CF9024
:102FB000BF90AF900895FC01758764875787468757
:102FC0000895FC01738B628B718B608B0895FC01FB
:102FD000808591850895FC01828593850895EF92FF
:102FE000FF920F931F93DC011A960D911C911B9772
:102FF00018962D913C911997ED91FC9100A0F1A1AB
:10300000E02D7B0140E050E060E070E009951F9109
:103010000F91FF90EF90089520918903222399F05A
:103020004FB7F89420918903213059F42DB32093A0
:1030300087033DB320918803209523232DBB4FBFE9
:1030400002C0409387038CBD9DBD08958091890384
:10305000882361F09FB7F8942091890380918703BA
:10306000213019F48DBB9FBF08958FBF0895FF9243
:103070000F931F93CF93DF93EC01F62E042F122FA3
:1030800040EA50E060E870E00E94CA1481E791E0F5
:1030900099838883FC8E0D8F1E8F81E08B8F8FEF3D
:1030A00088A38F8FDF91CF911F910F91FF9008958B
:1030B000FC01838D882339F06EBD00000DB407FE3E
:1030C000FDCF8EB5089528E030E090E8A5A1B6A127
:1030D00085A5462F492319F04C91842B03C04C91B0
:1030E000809584238C93A7A1B0A54C9186A5842BB1
:1030F0008C93A7A1B0A54C9186A5809584238C9331
:1031000096952150310911F70895DC019996ED91BA
:10311000FC919A9790819F968C91892B808308953A
:10312000DC019996ED91FC919A9790819F968C91F4
:1031300080958923808308951F93CF93DF93EC01BB
:10314000162F8B8D882331F0809185039091860313
:103150000E940C18EBA5FCA5908188A98095892375
:103160008083CE010E949018612FCE010E945818D2
:10317000CE010E9485188B8D882329F0DF91CF9195
:103180001F910C942618DF91CF911F910895611122
:1031900002C060E201C061E20C949C18DC019B96C5
:1031A000ED91FC919C979081D0968C91892B808396
:1031B00008951F93CF93DF93EC01162F8B8D8823F7
:1031C00031F080918503909186030E940C18CE0106
:1031D0000E94CE18CE010E949018612FCE010E944D
:1031E0005818CE010E9485188B8D882329F0DF9115
:1031F000CF911F910C942618DF91CF911F910895C4
:10320000AF92BF92CF92DF92EF92FF920F931F93F4
:10321000CF93DF938C01EB012196FB01D490DD204D
:1032200009F437C0FE016491C8010E949C187E0118
:10323000F2E0EF0EF11CFE013196C4918C2F8078E4
:10324000C82ECF775701DC2FD15048F0F50164919B
:10325000C8010E94D918FFEFAF1ABF0AF5CFC70106
:103260008C0F911DEC01C11002C0DA94D8CF7C0103
:103270009FEFE91AF90AFE01649170E06F3F710552
:1032800011F464EF71E080E090E00E947610E701B5
:10329000ECCFDF91CF911F910F91FF90EF90DF90D6
:1032A000CF90BF90AF9008950F931F93CF93DF936C
:1032B000EC018B011AA219A21BA21CA261E08D8D48
:1032C0000E94161161E08C8D0E9416118C8D082EC3
:1032D000000C990BFC01E452FF4FE491F0E0EE0F7B
:1032E000FF1FE051FF4F259134913AA729A72D8D5B
:1032F000022E000C330BF901E452FF4FE491F0E091
:10330000EE0FFF1FE051FF4F459154915CA74BA773
:10331000FC01E853FF4FE491EFA7F901E853FF4F99
:10332000E491E8AB8B8D882349F00E94971C80E5DF
:103330008093850381E0809386033CC061E088A18F
:103340000E94161161E08F8D0E94161160E088A125
:103350000E94521160E08F8D0E94521188A1082EA8
:10336000000C990BFC01E452FF4FE491F0E0EE0FEA
:10337000FF1FE051FF4F2591349138A72FA32F8DC8
:10338000022E000C330BF901E452FF4FE491F0E000
:10339000EE0FFF1FE051FF4F459154915EA34DA3E7
:1033A000FC01E853FF4FE491EEA7F901E853FF4F0A
:1033B000E491EDA7CE010E9490188E8D8F3F09F108
:1033C00061E00E94161161E08E8D0E94521164EF3F
:1033D00071E080E090E00E94761060E08E8D0E94A7
:1033E000521164EF71E080E090E00E94761061E09D
:1033F0008E8D0E94521164EF71E080E090E00E9497
:1034000076100115110541F0B801CE01DF91CF9181
:103410001F910F910C940019DF91CF911F910F9183
:1034200008951F93CF93DF93EC01162F63E676E0A8
:103430000E945419111109C066E576E0CE010E9480
:10344000001982E089A381E010C0113081F480E886
:1034500090E09B878A87998788876CE376E0CE0126
:103460000E94001982E089A383E08AA318C0143067
:1034700089F480EA90E09B878A8780E590E09987CD
:1034800088876FE276E0CE010E94001988E189A367
:103490001AA205C069E476E0CE010E94001964E03A
:1034A00076E0CE010E940019123011F0143041F480
:1034B00066E3CE010E949C1860ECCE010E94D918F0
:1034C0001A8FE881F981008CF18DE02D60E0CE014A
:1034D000DF91CF911F910994EF92FF920F931F9369
:1034E000CF93DF93EC01E62E142FF22E6AE20E94B6
:1034F0009C1860E0CE010E94D9186BA16E0DCE0120
:103500000E94D91860E0CE010E94D9186BA16F0DFE
:10351000CE010E94D9186BE2CE010E949C1860E097
:10352000CE010E94D9186CA1610FCE010E94D9185A
:1035300060E0CE010E94D9186CA1600FCE010E94FC
:10354000D9186CE2CE01DF91CF911F910F91FF90BE
:10355000EF900C949C181F93CF93DF93EC01162FE0
:1035600066E30E949C18612F63706D8B8A8D6230B8
:10357000A1F06330D1F1613041F0823011F084303C
:1035800011F460EC11C068EC0FC0823011F084308F
:1035900011F460EA31C068EA2FC0823011F0843043
:1035A00011F460E001C068E0CE010E94D9188A8D54
:1035B000813029F480E890E09B878A870FC08430AF
:1035C00039F480EA90E09B878A8780E590E006C026
:1035D00080EA90E09B878A8780E890E099878887D7
:1035E00089A18BA38AA18CA327C0823011F08430DB
:1035F00011F460E601C068E6CE010E94D9188A8DF8
:10360000813029F480E890E0998788870FC0843062
:1036100039F480EA90E09987888780E590E006C0D9
:1036200080EA90E09987888780E890E09B878A8786
:1036300089A18CA38AA18BA3DF91CF911F910895BB
:10364000DF92EF92FF920F931F93CF93DF93EC01E2
:103650007901D02E88859985681779070CF042C0CA
:103660002A853B8542175307ECF59B012E0D3F1D24
:10367000821793071CF47C01E61AF70A2FEF260F36
:103680002E0D042FCE010E946C1A8B8D882331F0F1
:1036900080918503909186030E940C18CE010E94B0
:1036A000CE18CE010E949018E114F10461F0612F50
:1036B000CE010E9458186D2DCE010E94581881E04D
:1036C000E81AF108F1CFCE010E9485188B8D88236E
:1036D00049F0DF91CF911F910F91FF90EF90DF9014
:1036E0000C942618DF91CF911F910F91FF90EF90CE
:1036F000DF900895AF92BF92CF92DF92EF92FF9248
:103700000F931F93CF93DF93EC0159016801288534
:103710003985621773070CF058C08A859B85481756
:1037200059070CF052C0FB01EA0DFB1D2E173F0795
:103730001CF45901A61AB70A9A012C0D3D1D8217D7
:1037400093071CF46C01C41AD50A0FEF040F0C0D7B
:103750002FEF260F2A0DCE010E946C1A8B8D882325
:1037600031F080918503909186030E940C18CE0160
:103770000E94CE18CE010E9490181C141D049CF4C7
:103780008501101611065CF46F2DCE010E945818A9
:103790006E2DCE010E94581801501109F2CF81E020
:1037A000C81AD108EACFCE010E9485188B8D8823D4
:1037B00061F0DF91CF911F910F91FF90EF90DF901B
:1037C000CF90BF90AF900C942618DF91CF911F91AE
:1037D0000F91FF90EF90DF90CF90BF90AF90089542
:1037E000DF92EF92FF920F931F93CF93DF93EC0141
:1037F0007901D02E88859985681779070CF042C029
:103800008A859B8548175907ECF59A012E0D3F1DB7
:10381000821793071CF47C01E41AF50A0FEF040FDA
:103820000E0D262FCE010E946C1A8B8D882331F04D
:1038300080918503909186030E940C18CE010E940E
:10384000CE18CE010E949018E114F10461F0612FAE
:10385000CE010E9458186D2DCE010E94581881E0AB
:10386000E81AF108F1CFCE010E9485188B8D8823CC
:1038700049F0DF91CF911F910F91FF90EF90DF9072
:103880000C942618DF91CF911F910F91FF90EF902C
:10389000DF900895FF920F931F93CF93DF93EC0176
:1038A00077FD39C08885998568177907A4F557FD94
:1038B00032C08A859B85481759076CF5F32E122F65
:1038C00001E0040F21E0260FCE010E946C1A8B8DBF
:1038D000882331F080918503909186030E940C1813
:1038E000CE010E94CE18CE010E9490186F2DCE01FD
:1038F0000E945818612FCE010E945818CE010E94D4
:1039000085188B8D882339F0DF91CF911F910F910E
:10391000FF900C942618DF91CF911F910F91FF908B
:103920000895E5E8F3E080E5808311820895CF9360
:10393000CFB7F89480918A03811127C0E6EEF0E0BA
:103940008491E2EDF0E09491E82FF0E0EE0FFF1F9C
:10395000E650FF4FA591B491EC91E92321F461E089
:103960008AE00E94521161E08AE00E9416118CB533
:1039700080618CBD8CB580648CBD61E08DE00E945F
:10398000161161E08BE00E94161180918A038F5F0F
:1039900080938A03CFBFCF9108950E94E41E0895BB
:1039A0000E94A50A880B990B0895A1E21A2EAA1B62
:1039B000BB1BFD010DC0AA1FBB1FEE1FFF1FA217DF
:1039C000B307E407F50720F0A21BB30BE40BF50BDC
:1039D000661F771F881F991F1A9469F76095709565
:1039E000809590959B01AC01BD01CF010895EE0F2C
:1039F000FF1F0590F491E02D09940F931F93CF932F
:103A0000DF938230910510F482E090E0E0918D0325
:103A1000F0918E0320E030E0A0E0B0E0309719F1A3
:103A2000408151810281138148175907C8F08417DA
:103A3000950769F4109731F012960C93129713962C
:103A40001C9327C000938D0310938E0322C0211571
:103A5000310519F04217530718F49A01BD01EF011F
:103A6000DF01F801DBCF21153105F9F0281B390BF7
:103A70002430310580F48A819B816115710521F024
:103A8000FB019383828304C090938E0380938D0304
:103A9000FE01329644C0FE01E20FF31F8193919321
:103AA00022503109398328833AC020918B03309109
:103AB0008C03232B41F420910201309103013093B8
:103AC0008C0320938B03209100013091010121157B
:103AD000310541F42DB73EB74091040150910501E5
:103AE000241B350BE0918B03F0918C03E217F30755
:103AF000A0F42E1B3F0B2817390778F0AC014E5F5E
:103B00005F4F2417350748F04E0F5F1F50938C030B
:103B100040938B038193919302C0E0E0F0E0CF01EA
:103B2000DF91CF911F910F910895CF93DF9300976D
:103B300009F481C0FC01329713821282A0918D0397
:103B4000B0918E03109781F420813181820F931FF1
:103B500020918B0330918C032817390751F5F0938E
:103B60008C03E0938B0367C0ED0120E030E0CE17BB
:103B7000DF0740F44A815B819E0141155105F1F058
:103B8000EA01F5CFD383C28340815181840F951F11
:103B9000C817D90759F488819981840F951F029617
:103BA000918380838A819B81938382832115310550
:103BB00029F4F0938E03E0938D033DC0E901FB836C
:103BC000EA8349915991C40FD51FEC17FD0761F4A1
:103BD00080819181840F951F0296E90199838883E2
:103BE000828193819B838A83E0E0F0E012968D913D
:103BF0009C911397009719F0FD01DC01F7CF8D918F
:103C00009C9111979D012E5F3F4F820F931F209132
:103C10008B0330918C032817390769F4309729F406
:103C200010928E0310928D0302C013821282B09301
:103C30008C03A0938B03DF91CF910895A0E0B0E0B7
:103C4000E4E2FEE10C943D1FEC01009721F4CB016E
:103C50000E94FD1CB4C0FC01E60FF71F9C0122501E
:103C60003109E217F30708F4A8C0D9010D911C919E
:103C7000119706171707B0F00530110508F49BC01F
:103C8000C80104978617970708F495C002501109D8
:103C9000061B170B019311936D937C93CF010E9428
:103CA000951D89C05B01A01AB10A4C01800E911EBE
:103CB000A0918D03B0918E03612C712CE12CF12C1D
:103CC000109709F446C08D919C911197A815B905DC
:103CD000B1F56C0142E0C40ED11CCA14DB0478F1CA
:103CE0004C018A189B08640142E0C40ED11C129654
:103CF000BC9012971396AC91B5E0CB16D10440F06E
:103D0000B282A38391828082D9016D937C9309C092
:103D10000E5F1F4F800F911FF90191838083EB2D60
:103D2000FA2FE114F10431F0D7011396FC93EE93CE
:103D3000129741C0F0938E03E0938D033CC0681648
:103D4000790608F43C017D0112960D90BC91A02DDE
:103D5000B7CF80918B0390918C0388169906E1F47C
:103D600066167706C8F480910001909101010097D2
:103D700041F48DB79EB74091040150910501841B19
:103D8000950BE817F907C8F4F0938C03E0938B03C5
:103D9000F901718360830FC0CB010E94FD1C7C017F
:103DA000009759F0A801BE010E94E91ECE010E94B1
:103DB000951DC70104C0CE0102C080E090E0CDB7E0
:103DC000DEB7EEE00C94591F81E090E0F8940C947B
:103DD000701FFB01DC0102C001900D924150504068
:103DE000D8F70895FB01DC0101900D920020E1F766
:103DF00008954532510520F4423010F00C94041F10
:103E0000FB011082CB010895BB274A3031F499237E
:103E100022F4BDE2909581959F4F0C94101FBB2713
:103E2000FB015527AA27880F991FAA1FA41710F076
:103E3000A41B83955051B9F7A05DAA3308F0A95D82
:103E4000A193009779F7B111B1931192CB010C9422
:103E5000291FDC01FC01672F71917723E1F732976D
:103E600004C07C916D9370836291AE17BF07C8F355
:103E700008952F923F924F925F926F927F928F920E
:103E80009F92AF92BF92CF92DF92EF92FF920F93E9
:103E90001F93CF93DF93CDB7DEB7CA1BDB0B0FB6F3
:103EA000F894DEBF0FBECDBF09942A8839884888B0
:103EB0005F846E847D848C849B84AA84B984C88446
:103EC000DF80EE80FD800C811B81AA81B981CE0F3D
:103ED000D11D0FB6F894DEBF0FBECDBFED01089522
:043EE000F894FFCF84
:103EE40000008F03200050004000212121212121C6
:103EF40021212121212121212121212121212100CF
:103F040000000000E10C520EA30C280D750C8F0C60
:103F1400810C0D0A006E616E00696E66006F766634
:103F240000000000000517520EAF0DB20DCD1C139A
:103F340013E4120313EB12F71232121313B514B471
:103F44001414134D138613CB13E8135514000000F7
:103F5400000517520EAF0DB20D4A1C1313E41203E1
:103F640013EB12F71232121313AB1AC718F01B20FB
:0A3F74001B7A1BEF17E81355140029
:00000001FF
